:100000000C9445030C948C030C948C030C948C037B
:100010000C948C030C948C030C948C030C948C0324
:100020000C948C030C948C030C949F2A0C94722BCC
:100030000C9497210C948C030C948C030C948C03DB
:100040000C948C030C948C030C948C030C948C03F4
:100050000C948C030C94E2210C948C030C948C0370
:100060000C948C030C948C030C948C030C948C03D4
:100070000C948C030C948C030C948C030C948C03C4
:100080000C948C030C948C030C948C030C948C03B4
:100090000C948C030C948C030C948C030C948C03A4
:1000A0000C948C030C948C030C948C0335001E0070
:1000B0001F0020002100220023002400250026002C
:1000C00027002D002E0000002A002B000000140045
:1000D0001A000800150017001C0018000C00120080
:1000E00013002F003000310029000000040016002A
:1000F000070009000A000B000D000E000F0033007E
:10010000340028000000E10000001D001B00060074
:1001100019000500110010003600370038000000FB
:10012000E5000000E000E3000000E2000000000045
:100130002C0000000000000001511250000013507C
:10014000E40035003A003B003C003D003E003F002B
:1001500040004100420043004400450000004C00C4
:10016000000000000000000000000000000000008F
:100170000000000000000000000000000000290056
:10018000000000000000000000000000000000006F
:10019000000000000000000000000000000000005F
:1001A000000000000000000000000000000000004F
:1001B000000000000000000000000000000000003F
:1001C000000000000000000000000000000000002F
:1001D000000000000000000000000000000000001F
:1001E000000000000000000000000000000000000F
:1001F00000000000000000000000000000000000FF
:1002000000000000000000000000000000000000EE
:100210000000000002530000000000000000000089
:1002200000000000000000000000000000000000CE
:1002300000000000000000000000000000000000BE
:1002400000000000000000000000000000000000AE
:10025000000000000000000000000000000000009E
:10026000000000000000000000000000000000008E
:10027000000000000000000000000000000000007E
:10028000000000000000000000002A000000000044
:100290000000A900000000000000000000000000B5
:1002A0000000000000000000000003530000AC004C
:1002B000AA00AB00000000000000000000000000E9
:1002C000000000002800000000000000A800AE00B0
:1002D000000000000000000000000000000000001E
:1002E00000005200000000000000000000000000BC
:1002F00000000000000000000000000050000000AE
:1003000051004F0032190A00047F3F1F6432146409
:100310003214783C1E1E140A052223252628292A79
:100320002C2D2F3032333536383A3B3D3E40424358
:100330004547494A4C4E5051535557595A5C5E6097
:1003400062646668696B6D6F71737577797B7D7FA9
:1003500081838587898A8C8E90929496989A9C9EA8
:100360009FA1A3A5A7A8AAACAEAFB1B3B4B6B8B9C4
:10037000BBBCBEBFC1C2C3C5C6C7C9CACBCCCDCE2C
:10038000D0D1D2D2D3D4D5D6D7D7D8D9D9DADADB0F
:10039000DBDBDCDCDCDCDCDDDDDDDDDCDCDCDCDC9B
:1003A000DBDBDBDADAD9D9D8D7D7D6D5D4D3D2D2DA
:1003B000D1D0CECDCCCBCAC9C7C6C5C3C2C1BFBEC2
:1003C000BCBBB9B8B6B4B3B1AFAEACAAA8A7A5A32D
:1003D000A19F9E9C9A98969492908E8C8A898785EC
:1003E00083817F7D7B79777573716F6D6B696866CB
:1003F0006462605E5C5A5957555351504E4C4A499D
:1004000047454342403E3D3B3A3836353332302F44
:100410002D2C2A292826252322FFAA7F55400001BA
:1004200001010101010101010202020202020202B4
:100430000203030303030303030404040404040486
:10044000050505050506060606060707070707084A
:10045000080808090909090A0A0A0B0B0B0C0C0CFD
:100460000D0D0D0E0E0E0F0F0F1010111111121297
:1004700013131414151516161717181819191A1A14
:100480001B1B1C1D1D1E1E1F202021222223242475
:10049000252626272829292A2B2C2D2D2E2F3031B1
:1004A0003232333435363738393A3B3C3D3E3F40C3
:1004B0004142434445464748494A4C4D4E4F5051AE
:1004C0005354555658595A5B5D5E5F616264656668
:1004D00068696B6C6D6F7072737577787A7B7D7EEF
:1004E0008082838587888A8C8E8F91939596989A3F
:1004F0009C9EA0A2A3A5A7A9ABADAFB1B3B5B7BA57
:10050000BCBEC0C2C4C6C9CBCDCFD1D4D6D8DBDD2A
:10051000DFE2E4E7E9EBEEF0F3F5F8FAFDFF0A03BA
:1005200044005A0036003000000010034B00420027
:100530004400460061006E007300000004030904DB
:1005400009023B00020100A0FA09040000010301B6
:100550000100092111010001224000070581030863
:10056000000A090401000103000000092111010033
:100570000122BC000705820320000A1201100100BD
:100580000000085A4460220100010200010501092F
:1005900002A10185020901A100050919012905151A
:1005A00000250195057501810295017503810105FD
:1005B00001093009311581257F95027508810609E9
:1005C000381581257F950175088106050C0A3802CA
:1005D0001581257F950175088106C0C00501098038
:1005E000A101850319012AB700150126B70095015D
:1005F00075108100C0050C0901A101850419012AAB
:10060000A002150126A002950175108100C0050108
:100610000906A1018505050719E029E7150025014F
:100620009508750181020507190029EF15002501BC
:1006300095F07501810205081901290595057501D7
:100640009102950175039101C005010906A10105FB
:100650000719E029E7150025019508750181029524
:1006600001750881010507190029FF150026FF0003
:10067000950675088100050819012905950575017C
:100680009102950175039101C00011241FBECFEFA7
:10069000DAE0DEBFCDBF04B603FE27C0809164035D
:1006A00090916503A0916603B09167038730904BEA
:1006B000A740B04BD1F410926403109265031092DE
:1006C00066031092670314BE84B7877F84BF0FB69A
:1006D000F894A895809160008861809360001092E2
:1006E00060000FBEE0E0F8E3099511E0A0E0B1E0A2
:1006F000E0EFFDE502C005900D92A83CB107D9F7E7
:1007000023E0A8ECB1E001C01D92A436B207E1F7E6
:100710000E94E7270C94AC2E0C9400000F931F93BB
:10072000CF93DF938B01D82FC92F0E945A1F4FEF11
:10073000823081F0833089F0813091F460E88AEE74
:100740000E94C50AB8018D2F9C2FDF91CF911F9178
:100750000F9108956FEF8AE6F3CF6FEF80E0F0CF4F
:100760006FEF80E8EDCF81E0089581E008950C946B
:10077000B50308950C94B9031F93CF93DF9300D072
:1007800000D00F92CDB7DEB749835A836B83309187
:10079000860289819A8131111DC06623B9F0222316
:1007A000A9F00E940B1E182F682F89819A810E9440
:1007B000B41D69817A81812F0F900F900F900F9057
:1007C0000F90DF91CF911F910C948C040E94E21D39
:1007D000182FEFCF0E940B1E69817A81EDCFFC01AB
:1007E000262F408151816281738184810C94BC03E6
:1007F000CF93DF93D82FC92F60E00E94EF036D2FB6
:100800007C2FDF91CF910C94BA030E94A51F811118
:1008100002C00E945C200E947D040E9443110C943F
:1008200096060C94990608950E9468180E94130475
:100830002FEF84E39CE0215080409040E1F700C01E
:1008400000000C9406220F931F93CF93DF93EC01CB
:1008500061E00E94EF038C01BE010E94B703882370
:1008600089F1BE01C8010E949D10882359F1BE0183
:10087000C8010E94ED11882329F1BE01C8010E9420
:1008800042128823F9F0BE01C8010E941513882383
:10089000C9F0BE01C8010E94640F882399F08A81C3
:1008A000882339F001158CE5180751F00F3D1C45E0
:1008B00079F0CE01DF91CF911F910F910C94B3038A
:1008C0000E94140480E0DF91CF911F910F91089551
:1008D0000E945C20F7CF08950C946B0481E008958A
:1008E000CF93C82F0E946E04882319F0C1FD03C066
:1008F0002A9ACF9108952A98FCCF229A2A9A08958D
:10090000CF93C82F0E946C048C2FCF910C9470044D
:1009100090E080E008950895972F70E02FE0929F77
:10092000600D711D1124FB019BE4899FE00DF11DF9
:100930001124EE0FFF1FE455FF4F85919491089508
:10094000FC01EE0FFF1FEC5FFC4F85919491089521
:10095000CF93DF930E948C040E94BA05EC018115AD
:1009600020E5920708F04BC0811530E4930708F0AA
:10097000B2C0803E910518F5803C910508F09FC0FB
:10098000883A910570F4853A910508F095C0813058
:10099000910529F10497813A910508F1D0E0C0E072
:1009A0001EC08F3B9105D1F3C85AD0E0CC0FDD1F9C
:1009B000C45DDE4F0990D881C02DD46410C081156C
:1009C00040E2940780F48F3F910509F040F4883E9F
:1009D000910528F0805F9109D0654097F8F6CE0127
:1009E000DF91CF910895C11580E3D80708F46DC059
:1009F000CE019927D3FD6CC0EC01D06CF0CFC115AE
:100A000095E5D90760F5C11524E5D20708F094C033
:100A1000C11533E5D30778F4C11542E5D40708F0D2
:100A20007AC0C11581E5D80708F458C0DC2FCC275F
:100A3000C16FD06AD4CFCE018370992721E030E016
:100A400002C0220F331F8A95E2F7C695C69590E241
:100A5000C99FE0011124C22BD32BDA68C0CFC11586
:100A60002AE5D207B0F4C11539E5D30708F074C000
:100A7000C11546E5D40708F464C0CE0198558F3FF0
:100A8000910511F008F08ACFDC2FCC27C06FD06A17
:100A9000A6CFCE0190568115904208F07FCF8D2FC2
:100AA0008F710E94520690E0982F882788279F71A7
:100AB0009C012C2BE9014EC0A497D06490CF805CA0
:100AC00091090E94A004EC018ACFCE019F70F9CF5A
:100AD000EC01D86C84CFDF70D06A81CFCE0174E096
:100AE000969587957A95E1F783702C2F2695269514
:100AF000237040E2249F90011124382B8C2F8370A7
:100B0000C1E0D0E002C0CC0FDD1F8A95E2F7C22B16
:100B1000D32BDC6864CFCE018370992721E030E0CD
:100B200002C0220F331F8A95E2F7C695C69580E270
:100B3000C89FE0011124EBCFDC2FCC27C46FD06A13
:100B40004ECF8C2F0E945206C82FD0E0DC2FCC272E
:100B5000CC27DF71D06243CF8C2F8F700E9452065A
:100B600034E0D695C7953A95E1F7CF70DC2FC82FC2
:100B7000D06935CF803E910599F1C8F48133910554
:100B800009F476C048F48932910509F46AC08A32C2
:100B9000910509F474C0089589339105D1F0823824
:100BA0009105B9F08533910509F454C00895843E48
:100BB000910599F138F4823E9105F9F0833E910553
:100BC00009F10895863E910599F1873E9105B9F1A5
:100BD0000895209126032370A1F080EE90E00895FF
:100BE0002091260320FD52C03091270330FF09C019
:100BF00024FF4FC090E080E004C02091260322FD36
:100C0000F7CF08952091260322FD46C03091270397
:100C100030FDE3CF24FFF5CFEDCF2091270321FF57
:100C2000F0CF8091260384FDE5CF87EE90E0089514
:100C30002091260323FFE5CF24FDDCCFF6CF2091C2
:100C4000260323FD2CC03091270331FFE3CF84EE30
:100C500090E008952091260325FFD3CF89E290E00C
:100C600008952091260325FFCCCF85E390E00895D9
:100C70002091260326FFC5CF8AE290E008952091B7
:100C8000260326FFBECF81E390E0089589E390E03C
:100C9000089583EE90E0089582EE90E0089586EE48
:100CA00090E008959091260392FF06C0282F2871A6
:100CB0002830F9F4877F846093FF06C0282F2871BD
:100CC0002831F1F4877E84612091270320FF06C03C
:100CD000382F38713830D9F4877F816021FF06C002
:100CE000282F28712831D1F4877E816194FD877E79
:100CF0000895282F24712430F9F68B7F8860DCCF8B
:100D0000282F2471243101F78B7E8861DDCF382FA5
:100D10003171313019F78E7F8860E0CF282F217133
:100D2000213121F78E7E8861E1CF08950C949506DC
:100D300008950C949806E82FF0E0EE0FFF1FE8539B
:100D4000FE4F808191810895089580EA8A95F1F798
:100D50000895F894E82FE295EF70A1E2AE0FB0E0AD
:100D60004C918F7021E030E0B90102C0660F771F0F
:100D70008A95E2F7CB01962F909594239C93EE5D94
:100D8000F0E09081892B8083789408950F931F93CE
:100D9000CF93DF9380E90E94A90681E90E94A9060A
:100DA00082E90E94A90683E90E94A90685E90E94BA
:100DB000A906CAE5D1E009E611E089910E94A906D9
:100DC0000C171D07D1F78AE0E2EDF1E0DF01982F63
:100DD0001D929A95E9F7E8ECF1E0DF011D928A9502
:100DE000E9F785E00E947C07DF91CF911F910F9179
:100DF0000C940504AF92BF92DF92EF92FF920F9393
:100E00001F93CF93DF93C9E6D1E002ED11E0D12C1F
:100E1000EE24E394F12C8991F894E82FE295EF7099
:100E2000A1E2AE0FB0E02C918F70A70102C0440F79
:100E3000551F8A95E2F7CA01922F982B9C93EE5D7D
:100E4000F0E0908180958923808378940E94A506A4
:100E5000AAE5B1E030E020E0B12CA12C4D91E42FC7
:100E6000E295EF70E05EF0E0808190E04F7002C0AC
:100E7000959587954A95E2F780FD39C0C701022E06
:100E800002C0880F991F0A94E2F7A82AB92A2F5F97
:100E90003F4F2F30310511F7FE01319780810E94BD
:100EA000A906F80180819181A816B90619F1B182CD
:100EB000A08281E0D82A0E5F1F4FF1E0CE36DF0717
:100EC00009F0A9CF2D2D45E068EC71E082ED91E0AD
:100ED0000E947D070E9411048D2DDF91CF911F91FB
:100EE0000F91FF90EF90DF90BF90AF90089580E05A
:100EF00090E0CBCF80E0DECF0895FF920F931F9359
:100F0000CF93DF93F82E092F162FD72FC42F22232C
:100F100049F081E08093DE010E94C7219093DD01BA
:100F20008093DC018091DE018823A1F08091DC01B7
:100F30009091DD010E94D321069760F0EF2DF02FF4
:100F4000A12FBD2F90E080E0D0E08C179D0744F0EA
:100F50001092DE01DF91CF911F910F91FF900895C4
:100F6000219131912D933D930196EFCFCF92DF9256
:100F7000EF92FF920F931F93CF93DF93D62FC72F3C
:100F8000982F711113C0442329F0E82FF0E0E25E9E
:100F9000FB4F9491692F792F892FDF91CF911F916A
:100FA0000F91FF90EF90DF90CF900895272F30E0C2
:100FB000E82FF0E0442321F0E25EFB4FE491F0E003
:100FC00086E0D89F700111240FEF10E0C701B8012F
:100FD0000E943F2D8D2F90E0880F991FA5E5A69FB9
:100FE000A001A79F500D1124841B950BD82EDD0C5A
:100FF000D80EC801821B930B8E9FA0018F9F500DAE
:101000009E9F500D1124952FDC9EE0011124CD2FC1
:10101000DD27D801AC1BBD0BED01CE9FD001CF9FCA
:10102000B00DDE9FB00D11248B2FE801CD19D10931
:101030006E01C29EE001C39ED00DD29ED00D112440
:10104000CD2FDD270C1B1D0B0E9FE0010F9FD00D38
:101050001E9FD00D11242E2F63307105D9F03CEF67
:10106000E31633E0F30668F461307105B9F06230DD
:101070007105C1F0AFEFEA16F10448F4852F9D2FFA
:1010800006C06430710589F066307105B9F3692FC7
:10109000722F83CF9B2F8E2F252FF9CF9E2F2B2F93
:1010A000852FF5CF8D2F9E2FF7CF8E2F2D2FEFCFA2
:1010B00041E00C94B60708950C945808CF93DF9341
:1010C000982F762F842FE901692F0E945C0879837D
:1010D00068838A83DF91CF91089580916B02982F66
:1010E0009E7F29F48170826080936B02089586351B
:1010F000E8F381708465F8CF88E090E00C944D2E81
:101100000F931F93CF93DF938B01D82FC92F0E948A
:101110006D08A8016D2F7C2F88E090E0DF91CF91C2
:101120001F910F910C946B2EEBE6F2E083E080832D
:1011300011828FEF82838383148263E070E08FEFEC
:101140009FEF0C94800880916B0280FF02C086950F
:10115000089580E00895CF93DF9300D000D0CDB7FD
:10116000DEB790916F02933018F49F5F90936F02F7
:101170008823B1F080916B0290916C02A0916D0276
:10118000B0916E0289839A83AB83BC83BC01CD018D
:101190000F900F900F900F90DF91CF910C948008DB
:1011A0000F900F900F900F90DF91CF91089581E0F5
:1011B0000C94AB08CF93DF9300D000D0CDB7DEB74F
:1011C00090916F02992319F0915090936F028823A8
:1011D000B1F080916B0290916C02A0916D02B09180
:1011E0006E0289839A83AB83BC83BC01CD010F90CF
:1011F0000F900F900F90DF91CF910C9480080F907B
:101200000F900F900F90DF91CF91089581E00C9493
:10121000DA0870E00C9453116091080180916B0220
:1012200080FF0AC08091070123E0829FC001112442
:101230008E5C9D4F0C9409098091090190910A01DF
:1012400023E0829FF0011124EE5CFD4F891750F7D7
:101250001182108212828F5F3396F8CF90916B02C9
:1012600090FF14C09091090120910A0133E0939FEF
:10127000F0011124EE5CFD4F921710F00C940C0954
:101280008183608342839F5F3396F6CF0895CF9327
:10129000DF9300D00F92CDB7DEB790916B0290FF35
:1012A0000AC09E012F5F3F4F0E945E084B816981FB
:1012B0008A810E942E090F900F900F90DF91CF919D
:1012C0000895CF93DF93EC01EC81F0E0E75EFC4FF3
:1012D0004491EBE6F2E0628181810E9447098C81B2
:1012E0008F5F8C83DF91CF910895CF93DF93EC01D3
:1012F000EBE6F2E0438162818C810E9447098C8198
:101300008F5F8C83DF91CF9108950F931F93CF93BD
:10131000DF9300D00F92CDB7DEB78C018091DF0153
:1013200081110AC09E012F5F3F4F4FEF6FEF0E9468
:101330005E088A818093DF01F8016481613049F0A1
:101340006230F1F08091DF0140E0662331F040E04F
:1013500019C06091DF0140E080E00E942E09F80191
:10136000848190E0019663E070E00E94532D8483B5
:101370000F900F900F90DF91CF911F910F910895D3
:101380004091DF0180E060E0E8CFAF92BF92CF9262
:10139000DF92EF92FF920F931F93CF93DF9300D0D2
:1013A00000D000D00F92CDB7DEB7182FF62E042F45
:1013B000D22E90916B0290FF83C0E92FE695AE2F5D
:1013C000B0E0A259BE4F8C91809369029E7F92300B
:1013D000A1F59E012F5F3F4F812F0E945E084B8138
:1013E00069818A810E942E0910936C02F0926D022D
:1013F00000936E02DD2009F463C080916B0290912E
:101400006C02A0916D02B0916E028C839D83AE83BD
:10141000BF83BC01CD0127960FB6F894DEBF0FBE87
:10142000CDBFDF91CF911F910F91FF90EF90DF9093
:10143000CF90BF90AF900C948008823019F4009147
:101440006E02D2CF863019F410916C02CDCF893064
:10145000D9F3893149F6E9518E2F8170C82EE6956E
:10146000F0E0E75EFB4FA590B490E12CBB246091C7
:101470000B01E61618F00E940C09B6CF2E2D30E0B5
:10148000EA9CC001EB9C900D112470E00E943F2D5E
:10149000812FC11013C0860F90910901A901490F36
:1014A000511D9A01220F331F240F351F2E5C3D4F13
:1014B000402F6F2D0E945E08E394D9CF861BECCF9E
:1014C00027960FB6F894DEBF0FBECDBFDF91CF9148
:1014D0001F910F91FF90EF90DF90CF90BF90AF9052
:1014E0000895282FEBE6F2E0818143816281885FD5
:1014F0000C94C50981E00C94710A282FEBE6F2E008
:1015000081814381628188500C94C50981E00C94EB
:101510007D0A282FEBE6F2E0628138E0630F08F4E1
:101520006FEF438181810C94C50981E00C94890A95
:10153000282FEBE6F2E0628138E0631B08F460E0FC
:10154000438181810C94C50981E00C94980A282F6D
:10155000EBE6F2E0438138E0430F08F44FEF62819D
:1015600081810C94C50981E00C94A70A282FEBE631
:10157000F2E0438138E0431B08F440E0628181815E
:101580000C94C50981E00C94B60A20E00C94C509BE
:10159000EF92FF921F93CF93DF93EC0110E0EE24C4
:1015A000EA94F12C60910B01161770F00E940C095F
:1015B0009A818C8190FF27C08F5F8C83DF91CF91C0
:1015C0001F91FF90EF90089520910901422F410F44
:1015D0005527551FCA019A01220F331F280F391FA3
:1015E0002E5C3D4F70E0C7010E94532D962F8C81D9
:1015F00040916E0260916D02199F800D11240E942E
:101600005E081F5FCFCF8150D8CFBF92CF92DF92BD
:10161000EF92FF920F931F93CF93DF93FC01828190
:101620000FEF80FF01E010E080910B011817C0F070
:101630000E940C098091E101013009F051C0811133
:1016400002C080910B0181508093E101DF91CF9125
:101650001F910F91FF90EF90DF90CF90BF90089572
:1016600080910901C12ED12C8C0D9D2D911DEC0175
:10167000CC0FDD1FC80FD91FCE5CDD4F1982188239
:101680001A8234E0E32EF12CB12C8091E1018B0D14
:10169000813104F18F70082E000C990BC816D90601
:1016A00091F480916E028E9DA0018F9D500D1124AA
:1016B00055954795559547959E0160916D0280918E
:1016C0006C020E945E08B00EF1E0EF1AF108E9F634
:1016D0001F5FAACF87FFDFCF90910B01890FDBCF70
:1016E00090E0019660910B0170E00E94532DACCF09
:1016F0000F931F93CF93DF938091090190910A017B
:1017000023E0829FF0011124EE5CFD4F891740F128
:10171000C0E0D3E060910B01C61740F10E940C09B4
:10172000209105018091E001820F8093E00190916A
:101730000601920F90930601191654F4082E000C1E
:10174000990B40910B014150550B841795071CF0E4
:10175000219520930501DF91CF911F910F9108955D
:101760001182108212828F5F3396D0CF0C2F10E03F
:1017700070E0C8010E94532D20910901820F482F6B
:1017800050E02091E001022E000C330B02171307EA
:10179000BCF020910601022E000C330B20173107FC
:1017A0007CF08D9F900111242E5C3D4F40916E0284
:1017B00060916D0280916C020E945E08CF5FAACF9B
:1017C000FA01EE0FFF1FE40FF51FEE5CFD4F1182D3
:1017D00010821282F3CFEF92FF920F931F93CF9359
:1017E000DF93CDB7DEB72E970FB6F894DEBF0FBEEE
:1017F000CDBF8D879E87AD85BE8514961C91212F08
:1018000030E0D9010E94972D9B01AC010E94AD2DC3
:1018100069837A838B839C83E0E2F0E0E11BF1092A
:10182000A5E5B0E09B01AC010E94AD2D69877A87E8
:101830008B879C879F01DF010E948F2D6D837E83A4
:101840008F8398879B01AC010E94B82D9B01AC014E
:1018500069817A818B819C81260F371F481F591F10
:1018600069857A858B859C850E94672DF22E822F53
:1018700090E079E2721788F183E0289F90011124AB
:1018800035952795122F109500E085E5E82EEF1885
:1018900080910B01081780F10E940C09AD85BE856F
:1018A00014969C9181E0992319F0903219F48FEFEE
:1018B0008093040180910401890FED85FE85848366
:1018C0002E960FB6F894DEBF0FBECDBFDF91CF913D
:1018D0001F910F91FF90EF90089525E530E0D90119
:1018E000A81BB90B9D01220F331F2A0F3B1F37FF87
:1018F000C7CF2F5F3F4FC4CF8E2D01FD8F2D20917D
:101900000901E22FE00FFF27FF1F9F01220F331F66
:101910002E0F3F1F2E5C3D4F412F60916D020E94A4
:101920005E080F5FB5CF0F931F93CF93DF93EC014A
:1019300010E000E090910B019017110609F06CF493
:101940000E940C098C8190E00196817099278C830C
:10195000DF91CF911F910F91089580910901A80106
:10196000480F511D9A01220F331F240F351F2E5C83
:101970003D4F4C8160916D0280916C02969590175D
:10198000110651F04CF0442349F040916E020E9440
:101990005E080F5F1F4FCECF4423B9F340E0F7CF6F
:1019A0008F929F92AF92BF92CF92DF92EF92FF926F
:1019B0000F931F93CF93DF93FC01B280948081E05B
:1019C000848300E015E05BE4A52E88248394EE2454
:1019D000EA94F12C7BE4C72ED12C80910B010817DF
:1019E00070F0DF91CF911F910F91FF90EF90DF90FA
:1019F000CF90BF90AF909F908F900C940C09C02F08
:101A0000D0E01C9FF0011D9FF00D1124EE51FE4F00
:101A100091101CC013821282809109018C0F9D2F9E
:101A2000911D9C01220F331F280F391F2E5C3D4F43
:101A30001C9FF0011D9FF00D1124EE51FE4F4281BD
:101A4000618180810E945E080F5FC7CF23812223BE
:101A500079F12150238334818A2D821B311101C0F9
:101A6000822F1C9FF0011D9FF00D1124EE51FE4F9F
:101A700090916E02899FC0011124B6010E943F2DF2
:101A80006283211104C0332311F01482A38222E067
:101A90002B1510F21C9FF0011D9FF00D1124EE512B
:101AA000FE4F80916C02808380916D028183B4CF60
:101AB0000E94282E823091400CF0AECF82E08B1530
:101AC00030F50E94282EB7010E94532D1C9FF00173
:101AD0001D9FF00D1124EE51FE4F808322E02B1547
:101AE000C8F40E94282E20916D022695622F70E086
:101AF0000E94532D280F1C9FF0011D9FF00D1124F3
:101B0000EE51FE4F21831282A382848285CF809181
:101B10006C02DCCF20916D02EECFCF93DF9300D02B
:101B200000D0CDB7DEB7EBE6F2E080818E7F808318
:101B300080819181A281B38189839A83AB83BC83A5
:101B4000BC01CD010E94800810926A029FEFA0E7BD
:101B5000B2E09150A040B040E1F700C000000F900B
:101B60000F900F900F90DF91CF910C940C09EBE642
:101B7000F2E080818E7F808310926A022FEF80E7EF
:101B800092E0215080409040E1F700C000000C94AA
:101B90000C0960916B02669570E04BE050E08CE0C0
:101BA00091E00E94382E892B19F481E080936A021B
:101BB0000E94C72190936302809362020895CF939D
:101BC000DF9300D000D0CDB7DEB790916B0290FFCD
:101BD00041C09170811134C0926090936B02662372
:101BE00081F080916B0290916C02A0916D02B09196
:101BF0006E0289839A83AB83BC83BC01CD010E94B2
:101C0000800860916B02669570E04BE050E08CE0DC
:101C100091E00E94382E892BD1F010926A0281E067
:101C20008093650240916E0260916D0280916C021A
:101C30000F900F900F900F90DF91CF910C94C50AE9
:101C40008B3210F09465C9CF880F982BC6CF0E94B5
:101C5000C90DE5CF0F900F900F900F90DF91CF91AE
:101C60000895682F80916B0286958F5F8B3208F004
:101C700081E00C94DF0D81E00C94310E682F90917F
:101C80006B0296958FEF890F913009F48AE20C94DC
:101C9000DF0D81E00C943E0E61E00C94DF0DEBE66D
:101CA000F2E080818160808386950C944C0E809157
:101CB0006B0280FD0C948D0D0C944F0E60E00C9423
:101CC000DF0D8091680281112EC00E94A51F811135
:101CD00004C00E945C200E9494080E947C086093CB
:101CE0006B0270936C0280936D0290936E026E7F14
:101CF00061F40E9494080E947C0860936B027093C8
:101D00006C0280936D0290936E020E946D08109297
:101D10006A0280916B0280FF03C086950E945E0E6E
:101D200081E0809368020895EBE6F2E080818160B3
:101D3000808386950C945E0E10926A0208950F932C
:101D40001F93CF93DF9380916A02882309F49DC08B
:101D500080916902E0916B02E695E81BE0936402D2
:101D60008230C9F5F0E0EB5EFC4FE491CE2FD0E07D
:101D700001E619E080916502882389F010926502DE
:101D80000E94C7219E0120953095280F391F30935E
:101D900063022093620210926702109266028091A1
:101DA0006202909163020E94D3218C179D0708F470
:101DB0006CC0E0916202F0916302CE0FDF1FD093FE
:101DC0006302C093620282E692E0F801DF91CF9154
:101DD0001F910F910994863049F4F0E0EE5EFC4FBC
:101DE000E491CE2FD0E005E719E0C4CF893051F45B
:101DF000E695F0E0E15FFC4FE491CE2FD0E008ECF7
:101E00001AE0B8CF8F3051F4E695F0E0E45FFC4F74
:101E1000E491CE2FD0E005E01BE0ACCF853149F452
:101E2000F0E0E75FFC4FE491CE2FD0E008E71BE045
:101E3000A1CFC8E2D0E00BEE1BE0883109F49ACFC5
:101E4000833239F4E7E0F3E0C591D49105E819E075
:101E500091CFC4EFD1E003E91CE0843209F48ACFCA
:101E6000C0EDD7E00BE518E0853209F083CF8E2F67
:101E700063E00E94332DE92FF0E0EC5FFC4FE4912A
:101E8000CE2FD0E000ED1CE075CFDF91CF911F91F8
:101E90000F910895FA0181110994FB01FDCFCF93B1
:101EA000DF93C82FD62F0E94A3088C1740F00E9402
:101EB000A3088D1720F4DF91CF910C943B0E8C2F4B
:101EC000DF91CF910C944C0E0F931F93CF938C0105
:101ED000FB01C281CC2309F465C00E94A81E827256
:101EE000F801E35CFC45E431F10538F4E255F14DCD
:101EF0000C94892D0E94570EC0E08C2FCF911F911A
:101F00000F91089549E45EE06BE37EE00E944A0F82
:101F1000F3CF4BE35EE069E47EE0F8CF46E85AE0B9
:101F20006AE77AE0F3CF4AE75AE066E87AE0EECF74
:101F300044EA5AE065E97AE0E9CF45E95AE064EA23
:101F40007AE0E4CF42EC5AE063EB7AE0DFCF43EB98
:101F50005AE062EC7AE0DACF46E059E067ED78E0EB
:101F6000D5CF47ED58E066E079E0D0CF81E00E9420
:101F70004C0EC2CF65E082E00E944F0FBDCF68E0FB
:101F800086E0FACF6EE089E0F7CF64E18FE0F4CF2E
:101F900067E185E1F1CF88E1EACF62E289E1ECCF48
:101FA00083E2E5CFC1E0A9CF0E94A51F811102C045
:101FB0000E945C200E94DD1F80937002803320F01D
:101FC000877088628093700290917002892F81706F
:101FD00090FF04C0892F8695869586950C94D51020
:101FE00080917002982F969596959695883240F438
:101FF0009F5F990F990F990F8770892B80937002BB
:10200000809170028160809370020E94E11F809134
:1020100070028695869586950C94D51080917002F5
:10202000982F987F79F0885080937002887F91E094
:1020300009F490E08091700290FB80F98093700227
:102040000E94E11F809170028695869586950C947A
:10205000D5108091700280FD13C081608093700262
:10206000813019F489E080937002809170020E949F
:10207000E11F809170028695869586950C94D51007
:1020800008958091700280FF08C08E7F8093700257
:102090000E94E11F80E00C94D51008958091700299
:1020A00080FD0C9441100C94291090917002892F9E
:1020B0008695869586958F5F8F7197708630D8F458
:1020C000880F880F880F892B80937002809170028F
:1020D000887F91E009F490E08091700290FB80F994
:1020E000809370020E94E11F809170028695869510
:1020F00086950C94D51090937002E8CF863008F046
:1021000085E0909170029770282F220F220F220FE6
:10211000922B90937002987F21E009F420E0909137
:10212000700220FB90F9909370020C94D5100E94DD
:102130007E10809170020C94E11F9C01FB01828152
:10214000882361F12F3BFCE53F07F9F060F42D3B5C
:10215000ECE53E07A9F02E3BFCE53F0799F02C3B50
:102160003C4549F00895203CECE53E0789F0213CD0
:102170003C4589F0089585E00E94971080E008951D
:1021800080E0FACF0E940E10F9CF0E94F00FF6CF38
:102190000E944E10F3CF0E945510F0CF81E00895B9
:1021A000269A2E9808952E980895CF93DF93CDB751
:1021B000DEB728970FB6F894DEBF0FBECDBF898378
:1021C000863060F581112CC0809180008F7D8093D6
:1021D00080000E94D3104981242F30E0AFEFBFEF81
:1021E0000E94972D25E030E040E050E00E94672DEE
:1021F000C9012C3764E13607C8F469E070E00E9439
:102200003F2D70938B0060938A0028960FB6F89448
:10221000DEBF0FBECDBFDF91CF91089525E02983AA
:1022200080918000806280938000D5CF2A50374D06
:102230004F4F5F4FB42FA32F922F8827BC01CD01A2
:1022400025EF38E241E050E00E94672D29833A8370
:102250004B835C83CA01B9010E94232D9B01AC0111
:1022600069817A818B819C810E94232DBB27A92FB4
:10227000982F872FBC010097A140B10511F66FEF91
:102280007FEFBFCF08950E94D01082E2809380003C
:1022900089E1809381008FEF9FEF90938700809377
:1022A00086000C94D40F9C01AB016A9A6EB16B7FCF
:1022B0007EB17460EFB7F894CA01880F991F840F3C
:1022C000951F820F931F8217930741F4EFBF8FE58D
:1022D00094E00197F1F700C000000895D9014D91F5
:1022E0009D0158E07EB9000000C047FF6EB9440F61
:1022F000000000C000C000C06EB900C05A9591F740
:10230000E2CF0F931F93CF93DF93C42FD22FFC0103
:1023100082818823C9F0409373020E94C721909361
:1023200072028093710280E28C0F883008F050C0F6
:10233000C77081E001C0880FCA95EAF7DF91CF919D
:102340001F910F910C94A41510917302141335C0B2
:1023500080917102909172020E94D321883C910574
:1023600060F5C0E2CD0F1D17B9F080E2810F883013
:1023700040F4177081E001C0880F1A95EAF70E94B7
:10238000AB15C83048F481E09D2F977001C0880FCD
:102390009A95EAF70E94A415802F0E949115C830E3
:1023A000B8F4D77081E001C0880FDA95EAF7DF91C1
:1023B000CF911F910F910C94AB1580E28C0F883058
:1023C00038F4C77081E001C0880FCA95EAF7EFCFF3
:1023D000DF91CF911F910F9108950F939C01CB0135
:1023E000243F4CE53407A1F190F4293DFCE53F077B
:1023F00049F12A3D4CE53407E9F1283D3C45C1F05F
:10240000FC0182818823E1F11092730219C0263FFA
:10241000FCE53F0719F1273F4CE5340729F1253F3B
:102420003C4571F707E225EE44EE65EF7CE505C01B
:1024300006E221EE41EE68ED7CE50E94811180E02C
:102440000F91089507E225EE45EE69ED7CE5F5CFA5
:1024500006E221EE40EE64EF7CE5EFCF06E221EEEE
:1024600042EE66EF7CE5E9CF07E225EE46EE67EF48
:102470007CE5E3CF08E221E045EE6AED7CE5DDCFC7
:1024800081E0DECFCF93DF93EC01FB0182818823D3
:1024900009F4C9C0C631FCE5DF07E0F4C2309CE5B1
:1024A000D907F0F00E94C21F909327038093260360
:1024B000C631ECE5DE0720F5C230FCE5DF0798F415
:1024C00080912603909127030E94D01F0E946818D4
:1024D00080E006C09E012B5F3C452930310510F39A
:1024E000DF91CF910895FE01E350FC4580912603D2
:1024F0008160E331F10588F4EE53F14D0C94892DA0
:10250000CB5FDC45C930D105D8F6CB52D14DFE01A9
:102510000C94892D80912603826080932603D0CF6E
:10252000809126038460F9CF809126038860F5CFDF
:1025300080912703816080932703C2CF8091270376
:102540008260F9CF809126038061E7CF80912603D6
:102550008062E3CF809126038064DFCF0E946818F9
:10256000809126038068D9CF809126038C60D5CFD7
:10257000809127038360DFCF809126038E7FCDCFAC
:10258000809126038D7FC9CF809126038B7FC5CF95
:1025900080912603877FC1CF809127038E7FCBCF89
:1025A000809127038D7FC7CF809126038F7EB5CF83
:1025B000809126038F7DB1CF809126038F7BADCF95
:1025C0000E946818809126038F77A7CF80912603F9
:1025D000837FA3CF809127038C7FADCF809126038B
:1025E00082FB992790F921E0922790FB82F990FBDA
:1025F00083F993CF80912703982F909591708E7FC8
:10260000892B90FB81F997CF0E946818909126033F
:10261000892F97FB87F9805880CF81E00E945E2048
:102620004FCF80E0FBCF81E05BCFCF93DF93EB0117
:1026300086319C4511F50E94A81E9A81992399F034
:102640008A7A91E009F490E090937402811109C0B4
:1026500089E20E94831E0E94F71E80E0DF91CF91E5
:10266000089585E3F6CF80917402811104C089E258
:102670000E948A1EF0CF85E3FBCF81E0EFCF9093DD
:102680007A02809379020895E0917902F0917A02BA
:10269000309721F00190F081E02D099480E00895B9
:1026A000DC01E0917902F0917A02309799F0809103
:1026B0002B01882351F08091260387FF06C08C915F
:1026C00011968C93119785E08C930280F381E02D15
:1026D000CD0109940895DC01E0917902F0917A022C
:1026E000309739F082E08C930480F581E02DCD01A4
:1026F00009940895209177023091780228173907BC
:1027000071F09093780280937702E0917902F091D2
:102710007A02309721F00680F781E02D0994089520
:1027200020917502309176022817390771F0909345
:10273000760280937502E0917902F0917A023097E7
:1027400021F00084F185E02D0994089585B7806813
:1027500085BF85B7806885BF0895089508950C9456
:10276000AD1308950C94B1130E94A6130E94AE13EA
:102770000C94AF1381E008950C94BA130895089552
:102780000E94BE210E94C6060E9475220E94D40F9C
:102790000E94610E0C94B2139F92AF92BF92CF929F
:1027A000DF92EF92FF920F931F93CF93DF9300D0AE
:1027B00000D00F92CDB7DEB70E94BE130E94BF13A8
:1027C0000E94FA060E94BC13882309F473C05CE7D8
:1027D000A52E52E0B52E10E000E0902E802F0E9432
:1027E0009B067C01F501C190D1905F01C816D90606
:1027F00009F45AC080911E0381FD0E94A40696012F
:102800002E253F2580E0CC24C394D12CA9014C2156
:102810005D21452B09F442C089839A82EC20FD207A
:1028200081E0EF2809F480E08B830E94C72181605A
:10283000782F9D838C8349815A816B818D810E9481
:102840007C14000F111FF801E458FD4F8081918125
:10285000C826D926D182C0820E949F0E0E944211B2
:102860000E9453250E94441390917B02891799F18D
:102870000E94441380937B020F900F900F900F9053
:102880000F90DF91CF911F910F91FF90EF90DF900C
:10289000CF90BF90AF909F900C9480048F5FCC0C32
:1028A000DD1C8F3009F0B2CF0F5F1F4F05301105CF
:1028B00009F093CF8FEF89838A831B820E94C721FF
:1028C0008160782F9D838C8349815A816B818D81B2
:1028D0000E947C14C1CF0F900F900F900F900F901B
:1028E000DF91CF911F910F91FF90EF90DF90CF90EC
:1028F000BF90AF909F900895CF93DF93CDB7DEB791
:102900002B970FB6F894DEBF0FBECDBF4F8358870D
:1029100069877A878B871E8285E0FE013796DE0104
:10292000119601900D928A95E1F749815A816B8148
:102930007C818D819E812B960FB6F894DEBF0FBEF1
:10294000CDBFDF91CF910C94CA1AFC018081918197
:102950000C944D1ECF93C82F882309F48AC0823867
:10296000C1F40E94441381FD84C089E30E94831E48
:102970000E94F71E2FEF31EE84E02150304080405E
:10298000E1F700C0000089E30E948A1ECF910C94F9
:10299000F71E8338A1F40E94441380FD6AC083E5CA
:1029A0000E94831E0E94F71E9FEF21EE34E091509B
:1029B00020403040E1F700C0000083E5E5CF8438D7
:1029C000A1F40E94441382FD54C087E40E94831E38
:1029D0000E94F71E8FEF91EE24E08150904020403E
:1029E000E1F700C0000087E4CFCF8CEF8C0F813A75
:1029F00090F46C2F80911701909118010E9477201C
:102A0000882329F08C2F0E948A1E0E94F71E8C2F8B
:102A10000E94831EBBCF80E28C0F883048F4C770C1
:102A200081E001C0880FCA95EAF70E94AB1EAECFC5
:102A30008BE58C0F833038F42C2F2452330BC901D3
:102A4000CF910C947A13E8E5EC0FE73150F4F0E005
:102A5000EE0FFF1FE756FE4F80819181CF910C94BE
:102A60009013C03F30F08C2F0E944E24CF910C94D5
:102A70003925CF910895882309F452C0823871F422
:102A80000E94441381FF4CC089E30E94831E0E9470
:102A9000F71E89E30E948A1E0C94F71E833859F4AE
:102AA0000E94441380FF3CC083E50E94831E0E9465
:102AB000F71E83E5EFCF843859F40E94441382FF58
:102AC0002FC087E40E94831E0E94F71E87E4E2CF96
:102AD0009CEF980F913AF0F290E2980F983050F4F2
:102AE000877091E001C0990F8A95EAF7892F0E94BB
:102AF000B11ED2CF9BE5980F933020F490E080E098
:102B00000C947A1398E5980F973120F490E080E0C8
:102B10000C949013803F20F00E94B6240C94392529
:102B20000895CF93C82F0E94AA14C93349F42FEFF8
:102B300087EE93E0215080409040E1F700C0000014
:102B40008C2FCF910C943B15882321F00E94AB1E53
:102B50000C94F71E0895882321F00E94B11E0C9456
:102B6000F71E0895AF92BF92CF92DF92EF92FF923D
:102B70000F931F93CF93DF9300D000D00F92CDB768
:102B8000DEB76C016D837983FC01058102950F70BE
:102B9000128111110E94CA1E0E94A11EE82E8823D4
:102BA00091F01123D1F08981807F803421F08D81D3
:102BB000805E883090F082E00E94421F0E94A11E39
:102BC00091E0E82EE926A980A2949FE0A922B12CE9
:102BD000F501E252F14D0C94892DE12CF4CF0981DD
:102BE0000F70F981F07F11F00295007F1123B1F091
:102BF000002361F08D81805E883018F02D812111D5
:102C000009C0802F0E94AB1E0E94F71E8D810E947A
:102C1000AA1415C0802F0E94BC1EF6CF8D810E9481
:102C20003B15002361F08D81805E883018F04D8166
:102C3000411133C0802F0E94B11E0E94F71E48E050
:102C4000A41AB10854E0A516B10420F40E9444135C
:102C50000E948004EE2009F4D6C10E949D1E80FDD2
:102C6000D2C1F60112820E94971E0E94A41CC601C6
:102C70000E942A180E94971E0F900F900F900F909D
:102C80000F90DF91CF911F910F91FF90EF90DF9008
:102C9000CF90BF90AF900C94D51C802F0E94C21E85
:102CA000CCCF59815F70F52E6981607F603219F059
:102CB000F29480EFF8227D81772369F0713049F139
:102CC000112391F1002351F1F601858180FF9ECF00
:102CD0008F70858323C0112381F0011106C00E94EB
:102CE000DE1E8F290E94A415AACF0130C1F70E94D1
:102CF000DE1E8F290E94E41EA2CF011106C00E9491
:102D0000ED1E8F2D0E94AB159ACF013009F497CF9D
:102D1000F6CF112329F0063008F091CF8F2DE2CFA6
:102D2000053008F08CCFEDCF002359F3FD81F93346
:102D300049F42FEF47EE53E0215040405040E1F777
:102D400000C000008D810E943B1579CF8981869556
:102D50008695837069F0813009F071CF8D819981FA
:102D60009370111102C090E080E00E94901367CF31
:102D70008D8199819370111102C090E080E00E94D2
:102D80007A135DCF8D81112329F00E944E240E9479
:102D9000392555CF0E94B624FACF8981837009F076
:102DA00050C011114CCF4D81429546954770440F4C
:102DB000440F8D818F7090E0B0E0A0E0042E04C03D
:102DC000880F991FAA1FBB1F0A94D2F76D8100E0DC
:102DD00010E0980164FF0FC00FE010E020E030E049
:102DE00004C0000F111F221F331F4A95D2F7009510
:102DF00010952095309579817695769573707D83C1
:102E0000B901A801482B592B6A2B7B2B49835A8384
:102E10006B837C835D8169817A818B819C81523057
:102E200051F0533059F0513019F00E941C1C07CF5B
:102E30000E94F41B04CF0E94441C01CF0E94F21B8D
:102E4000FECE112309F445C0698160FFF8CE4D81A3
:102E5000429546954770440F440F8D818F7090E0E6
:102E6000B0E0A0E0042E04C0880F991FAA1FBB1F6A
:102E70000A94D2F7ED8100E010E09801E4FF0FC062
:102E80000FE010E020E030E004C0000F111F221F0F
:102E9000331F4A95D2F70095109520953095F9810A
:102EA000F695F695F370FD83B901A801482B592BCF
:102EB0006A2B7B2B49835A836B837C83F230A1F08E
:102EC000F330C9F0F13049F0CB01BA010E94631D23
:102ED000B6CE798171FFB3CEBACF69817A818B8109
:102EE0009C810E943B1DABCE69817A818B819C8144
:102EF0000E948B1DA4CE69817A818B819C810E9466
:102F00006E1C9DCE59815F705983112329F0852F46
:102F10000E94A41C8D81E6CE8D810E94AB15898113
:102F20000E94D51C8CCE6D81623F99F160F4603FA8
:102F3000D9F0613F39F1112309F444C0011166CE83
:102F400089818F7123C07D81733F41F1743F99F76F
:102F5000112371F189818F7189830E94A41C63E020
:102F600089810E942D1F6BCE112341F0053008F09E
:102F700066CE89818F710E940A1D61CE063008F0ED
:102F80005ECEF7CF89818F71112351F20E94A41C6C
:102F900056CE89818F711123C9F3C2CF112329F035
:102FA00089818F710E947F1C4ACE0E947A1C47CE75
:102FB00081E00E94421F023008F441CE82E00E946C
:102FC000421F3DCE002361F09D81993309F0BACEB6
:102FD000EFEFF7EE23E0E150F0402040E1F7B0CE14
:102FE00089818F719DCF49814F706D81C6010E948B
:102FF00088040E94641B23CE49814F706D81C601F5
:103000000E948B041CCE0F900F900F900F900F908A
:10301000DF91CF911F910F91FF90EF90DF90CF90B4
:10302000BF90AF9008950F931F93CF93DF93EC0160
:10303000688179818A810E94591E8C010E94B31D8A
:103040000E94F11BB801CE01DF91CF911F910F912A
:103050000C94B215CF93DF93EC018B819C81892B6B
:1030600029F08981988189238F3F59F4DF91CF918D
:103070000895CE010E941318CE01DF91CF910C94D8
:10308000F803CE010E9423048111F3CF0E94A11EF8
:10309000882361F38A81882349F382E0DF91CF910D
:1030A0000C94421F0E94CA1E0E94DB1E0E94F71E43
:1030B0000E9464260E94392590E080E00E947A13E5
:1030C00090E080E00C9490130E94911E0C94521892
:1030D0000E94B91E0C946418282F892F82958F7036
:1030E000903C80F48A30B0F4843020F4823090F444
:1030F00080E008958630E1F781E0283E88F0213FA6
:10310000B9F70EC08C3011F08F3091F793FB882700
:1031100080F9089581E0203F39F018F4283E40F707
:103120000895243F29F7FCCF08950E944D1E0C946A
:103130006C18CF93DF9300D000D00F92CDB7DEB7DD
:103140000F900F900F900F900F90DF91CF910895F7
:10315000CF93DF9300D000D000D0CDB7DEB7269656
:103160000FB6F894DEBF0FBECDBFDF91CF910895AB
:103170001F93CF93DF93E091870216E0809188023E
:103180008E1304C0DF91CF911F910895CE2FD0E010
:103190001E9FF0011124E757FD4F4081518162814C
:1031A0007381848195810E94A818FE013196E77091
:1031B000E5CF4091B9025091BA026091BB02709183
:1031C000BC028091BD029091BE020C94A8181F937E
:1031D000CF93DF938091BE02807FA9F48091BB02E0
:1031E000882389F080918702C09188027091B9028A
:1031F0006091BA02A091BC02B091BD02D62FD72334
:1032000016E0C81304C0DF91CF911F91089590E09C
:10321000109711F0DF3F19F401968770F2CF189FD5
:103220009001199F300D1124F901E757FD4F41819D
:103230006413F2CF40814713EFCF42814111ECCFAD
:10324000438154814A1B5B0B483C510528F7809110
:10325000BE028F7080618093BE02F901E257FD4F7C
:1032600080818F708061808389EB92E00E942A18B0
:10327000DF91CF911F910C94B818AF92BF92CF926B
:10328000DF92EF92FF920F931F93CF93DF93CDB70F
:10329000DEB72B970FB6F894DEBF0FBECDBF8C0103
:1032A00085E0F801DE01179601900D928A95E1F70D
:1032B000F80140815181E28089EBA82E82E0B82E8E
:1032C0006091BC027091BD026115710549F0909149
:1032D000B9022091BA02892F82238F3F09F045C19C
:1032E000EE2009F453C14F8358878F8198850E943F
:1032F0009518F82E882309F449C186E0F801A9EB56
:10330000B2E001900D928A95E1F789EB92E00E947C
:10331000A5140E94E71826C18091BE02382F307F85
:10332000683C710508F07CC03111B5C0FE2C251336
:1033300024C0941322C0E11020C08F70806180935C
:10334000BE020E94D91889EB92E00E942A1880914F
:10335000BE02F80185838F2D2B960FB6F894DEBF41
:103360000FBECDBFDF91CF911F910F91FF90EF90D6
:10337000DF90CF90BF90AF900895CD2829F0842F93
:1033800085238F3F09F084C080E0F82FF170DF2E95
:10339000E09187022091880236E080FD1CC0EE207B
:1033A000D1F28091BE0281608093BE02F12CD3CF16
:1033B0008E2F90E03E9FF0011124E757FD4F618171
:1033C000651306C06081641303C062816E11E7CF8C
:1033D000FC013196E770E213EBCF4F8358878F8162
:1033E00098850E944D1E292F22952F70903260F0F3
:1033F000225F2F70223078F49F7051F0F801958190
:10340000907F31F4D12C0AC09F7011F08823D1F342
:10341000805E8830B8F3C8010E942A18FD2C9BCF2B
:1034200031116EC06E2D7A858B850E94991889EBBB
:1034300092E00E942A1886E0F50111928A95E9F738
:103440000E94D918B3CF86E0F801A9EBB2E0019051
:103450000D928A95E1F77FCF4F8358878F819885AA
:103460000E94951881113DC08091BE0281608093B9
:10347000BE02C8010E942A186ECF6E2D7A858B85F8
:103480000E94991886E0F50111928A95E9F76AC0C1
:1034900081E08E257ACF251306C0941304C0F8016D
:1034A000EE2009F453C04F8358878F8198850E947E
:1034B0009518882309F46AC0EE2009F467C080914A
:1034C000BE02803270F02091B9023091BA023A8384
:1034D00029831B82DD82CC828E83CE0101960E94DD
:1034E0002A1886E0F801A9EBB2E001900D928A95C6
:1034F000E1F70E94E7180E94D918FF24F3942BCF1C
:103500002513D1CF9413CFCFE110CDCFF801858310
:10351000C8010E942A1886E0F50111928A95E9F700
:103520001ACF251399CF941397CF8091BE0280FDB7
:103530008ACF982F907F09F486CFF8018583903F3A
:1035400031F0982F907F905F8F70892B8583C80111
:103550000E942A1886E0F801A9EBB2E001900D92D2
:103560008A95E1F70E94D918F6CEC380D480F090F6
:10357000BB02F601E61BF70BBF01F110CDCE683C94
:10358000710508F07ACFFE2CE110CBCFC8010E9464
:103590002A18B3CF1F93CF93DF93CDB7DEB72C9705
:1035A0000FB6F894DEBF0FBECDBF4F835887698733
:1035B0007A878B879C87CE0107960E943D198823C6
:1035C00069F08A859B85892B39F058854F81852F35
:1035D00084238F3F09F071C016E05FC086E0FE01D2
:1035E0003796DE01119601900D928A95E1F78A8552
:1035F0009B85892B89F38F81988589238F3F61F380
:103600002091880230E0C901019687709927409186
:1036100087024817190671F40E94681810928802F0
:103620001092870286E0E9EBF2E0DF011D928A95B5
:10363000E9F7D2CF96E0929FD001939FB00D11246D
:10364000A757BD4FFE01319601900D929A95E1F773
:10365000809388020E94B818BFCF819FC0011124B7
:1036600087579D4F0E943D198823E9F0E09187021A
:103670001E9FF0011124E757FD4F40815181628167
:103680007381848195810E94A8188091870290E0BF
:103690000196877099278093870280918702909185
:1036A00088028913DACF2C960FB6F894DEBF0FBECE
:1036B000CDBFDF91CF911F91089569857A858B8564
:1036C0009C850E94A81888CFEF92FF920F931F93BA
:1036D000CF93DF938C01892B89F0F12CEE24E394B6
:1036E000E8012196F8018491843709F458C0A0F4C8
:1036F000823009F43FC048F48130D1F0DF91CF919E
:103700001F910F91FF90EF9008959CEF980F9037C5
:10371000A8F70E94AA140AC0853709F44EC09CE796
:10372000980F903758F78F770E943B158E0116C07F
:103730000E5F1F4FFE01849190E2980F983060F465
:103740008770FE2D01C0FF0F8A95EAF78F2F0E9428
:10375000CD1E0E94F71E02C00E94AA148F2D88233E
:1037600009F4BECFEFE9FFE03197F1F700C00000A8
:103770008150F5CF0E5F1F4FFE01849190E2980FAC
:10378000983050F48770FE2D01C0FF0F8A95EAF73C
:103790008F2F0E94D31EDDCF0E943B15DFCF0E5F1F
:1037A0001F4FFE01C491CC23C9F28FE99FE001971E
:1037B000F1F700C00000C150F6CF0E5F1F4FFE01B1
:1037C000F490CCCF08950C94E21B0E94E31B60930D
:1037D000F5027093F6028093F7029093F8020C942E
:1037E000521808950C94E51BCF93DF9300D000D0BE
:1037F000CDB7DEB769837A838B839C838091F50292
:103800009091F602A091F702B091F80229813A81D5
:103810004B815C81282B392B4A2B5B2B29833A83E4
:103820004B835C83CA01B9010F900F900F900F90EA
:10383000DF91CF910C94E51BCF93DF9300D000D0A4
:10384000CDB7DEB769837A838B839C838091F50241
:103850009091F602A091F702B091F80229813A8185
:103860004B815C81282339234A235B2329833A83B4
:103870004B835C83CA01B9010F900F900F900F909A
:10388000DF91CF910C94E51BCF93DF9300D000D054
:10389000CDB7DEB769837A838B839C838091F502F1
:1038A0009091F602A091F702B091F80229813A8135
:1038B0004B815C81282739274A275B2729833A8354
:1038C0004B835C83CA01B9010F900F900F900F904A
:1038D000DF91CF910C94E51B0C948E030E946C1C1D
:1038E0006093F1027093F2028093F3029093F402DA
:1038F0000C94521860E070E0CB010C946E1C0F9396
:103900001F93CF93DF9300D000D0CDB7DEB741E057
:1039100050E060E070E08A019B0104C0000F111FBD
:10392000221F331F8A95D2F709831A832B833C8386
:10393000C901B8010F900F900F900F90DF91CF91B8
:103940001F910F910C946E1C0F931F93CF93DF93D5
:1039500000D000D0CDB7DEB741E050E060E070E0CD
:1039600004C0440F551F661F771F8A95D2F78091B8
:10397000F1029091F202A091F302B091F4028A0157
:103980009B01082B192B2A2B3B2B09831A832B8392
:103990003C83C901B8010F900F900F900F90DF91F9
:1039A000CF911F910F910C946E1C0F931F93CF9387
:1039B000DF9300D000D0CDB7DEB741E050E060E04B
:1039C00070E004C0440F551F661F771F8A95D2F719
:1039D00040955095609570958091F1029091F2021A
:1039E000A091F302B091F4028A019B0108231923EC
:1039F0002A233B2309831A832B833C83C901B80103
:103A00000F900F900F900F90DF91CF911F910F911A
:103A10000C946E1C0F931F93CF93DF9300D000D0B4
:103A2000CDB7DEB741E050E060E070E004C0440F85
:103A3000551F661F771F8A95D2F78091F1029091EA
:103A4000F202A091F302B091F4028A019B010827CF
:103A500019272A273B2709831A832B833C83C90113
:103A6000B8010F900F900F900F90DF91CF911F91A1
:103A70000F910C946E1CCF93DF9300D000D0CDB784
:103A8000DEB769837A838B839C838091F102909166
:103A9000F202A091F302B091F40229813A814B81A4
:103AA0005C81282B392B4A2B5B2B29833A834B8350
:103AB0005C83CA01B9010F900F900F900F90DF91B6
:103AC000CF910C946E1CCF93DF9300D000D0CDB774
:103AD000DEB769837A838B839C838091F102909116
:103AE000F202A091F302B091F40229813A814B8154
:103AF0005C81282339234A235B2329833A834B8320
:103B00005C83CA01B9010F900F900F900F90DF9165
:103B1000CF910C946E1CCF93DF9300D000D0CDB723
:103B2000DEB769837A838B839C838091F1029091C5
:103B3000F202A091F302B091F40229813A814B8103
:103B40005C81282739274A275B2729833A834B83BF
:103B50005C83CA01B9010F900F900F900F90DF9115
:103B6000CF910C946E1C0895E82F2FE0929FE00DEA
:103B700011248E2F877041E001C0440F8A95EAF727
:103B8000E695E695E69585E0E89FF0011124E1547D
:103B9000FD4F30E020E070E05191DF011197CB0143
:103BA000022E02C0969587950A94E2F7817081955E
:103BB0008527842385278C932F5F3F4F2530310540
:103BC00059F70895E82F2FE0929FE00D11249E2FC2
:103BD0009770E695E695E69585E0E89FF00111245B
:103BE000E154FD4F50E040E080E0219130E0092EAB
:103BF00002C0369527950A94E2F721703327042EE8
:103C000001C0220F0A94EAF7822B4F5F5F4F4530C5
:103C1000510559F70895BF92CF92DF92EF92FF922C
:103C20000F931F93CF93DF938C01C090F102D0903C
:103C3000F202E090F302F090F4028091F50290918C
:103C4000F602A091F702B091F802C82AD92AEA2A0E
:103C5000FB2ACFE1D0E0BC2ED701C6010C2E04C058
:103C6000B695A795979587950A94D2F780FD0EC0D3
:103C7000219788F7B12C8B2DDF91CF911F910F9158
:103C8000FF90EF90DF90CF90BF900895B8018C2FF8
:103C90000E94A804019761F3EECFCF93DF93D82F52
:103CA000C92F0E940B1E6D2F7C2FDF91CF910C949A
:103CB000A8041F93CF93DF93162FD72F90918602DE
:103CC000992339F0862F972FDF91CF911F910C9474
:103CD0004D1E882391F0862F972F0E940B1EC82F10
:103CE000682F812F9D2F0E94B41D612F7D2F8C2F57
:103CF000DF91CF911F910C94A804862F972F0E94DB
:103D0000E21DC82FF2CF682F809117019091180102
:103D10000C94FB20682F80911701909118010C944E
:103D2000062180911701909118010C941121809126
:103D3000F90285958595859508958091F90287709A
:103D400008959091F902977081E009F480E0089558
:103D500080911D03089590911D03982B90931D034E
:103D60000895982F909580911D03892380931D03BA
:103D7000089510921D03089590911C03982B909321
:103D80001C030895982F909580911C03892380939C
:103D90001C03089510921C03089590911B03982B07
:103DA00090931B030895982F909580911B0389236E
:103DB00080931B03089510921B0308958091FA02CB
:103DC000089508950C94E11E9091FA02981721F03D
:103DD0008093FA020C94E21E08958091FA028823DF
:103DE00029F01092FA0280E00C94E21E0895E0910E
:103DF0001701F091180180911D038083E091170154
:103E0000F0911801808190911C03892B8083E091AF
:103E10001701F0911801808190911B03892B8083F9
:103E20009091FA02992381F0E0911701F091180125
:103E30008081892B808380911701909118010E94C5
:103E4000632081110E94ED1E80911701909118014D
:103E50000C94501308950C942A1F98E0899F9001A8
:103E60001124622B6093F9020E94A41C8091F90234
:103E70008595859585950C942B1F1092F90280E00D
:103E80000C942B1F9091F902809589238093F9025D
:103E9000282F277071F4282F082E000C330B92174F
:103EA000130639F08595859585950E94D51C0C944F
:103EB0003D1F08950F931F93462F572FBC01CB0131
:103EC000AA27BB270097A105B105E9F1AC01BD0107
:103ED00080E1052F162F272F332701151105210506
:103EE000310519F0885FB901A8018A019B01F4E04E
:103EF0003695279517950795FA95D1F70115110570
:103F00002105310519F08C5FB901A8018A019B01D7
:103F1000E2E03695279517950795EA95D1F70115B3
:103F200011052105310519F08E5FB901A8017695BB
:103F3000679557954795452B462B472B09F08F5F83
:103F40001F910F91089580E0C4CF90E080E00E941F
:103F5000532E9C0181E02C3E3E4F09F080E00895F5
:103F600082E090E00C94452E682F82E090E00C9463
:103F7000592E83E090E00C94452E682F83E090E06A
:103F80000C94592ECF9384E090E00E94452EC82FC8
:103F900081E290E00E94452E982F8C2FCF910895BA
:103FA000CF93682FC92F84E090E00E94592E6C2F88
:103FB00081E290E0CF910C94592E86E090E00C9431
:103FC000452E682F86E090E00C94592EAB01BC0181
:103FD0008FE090E00C946B2EAB01BC0183E190E08C
:103FE0000C946B2E60E070E0CB010C94EC1F60E051
:103FF00070E0CB010E94E61F0C94F21F6CEE7EEF86
:1040000090E080E00E94772E60E082E090E00E94E5
:10401000592E60E083E090E00E94592E1092F50244
:104020001092F6021092F7021092F80260E084E01B
:1040300090E00E94592E60E081E290E00E94592EAB
:1040400060E085E090E00E94592E60E086E090E01C
:104050000E94592E6FEF87E090E00E94592E40E0B9
:1040600050E0BA0188E090E00E946B2E60E08DE0A5
:1040700090E00E94592E40E050E0BA0188E190E0C3
:104080000E946B2E60E087E190E00E94592E40E094
:1040900050E0BA018CE190E00E946B2E60E080E27B
:1040A00090E00E94592E40E050E0BA0188E190E093
:1040B0000E946B2E0C94F71F0C94FE1F682F8EE04D
:1040C00090E00C94592EFC01329680912B018823AC
:1040D00021F0809126039EE187FF96E080E09150D9
:1040E00008F4089521912223D1F38F5FF8CF9C012A
:1040F000662301F180912B018823F1F08091260342
:1041000087FF1AC0462F469546954695603F90F426
:10411000677081E090E002C0880F991F6A95E2F70E
:10412000240F311DF901228130E02823392381E059
:10413000232B71F480E00895F9013296285F3F4FF8
:104140008191861721F0E217F307D1F7F3CF81E0D1
:1041500008959C01FC0132968FEF90E04191461743
:1041600051F08F3F19F4411101C0892F9F5F9630A4
:10417000A9F78F3F09F40895280F311D87FD3A955F
:10418000F901628308959C01FC013296285F3F4F3C
:104190008191861303C0DF0111971C92E217F30788
:1041A000B9F70895FC01862F869586958695603F20
:1041B00060F4E80FF11D677021E030E001C0220FCC
:1041C0006A95EAF78281822B82830895FC01862F0B
:1041D000869586958695603F68F4E80FF11D6770B7
:1041E00081E090E001C0880F6A95EAF7809592819E
:1041F00089238283089520912B01222329F0209185
:10420000260327FD0C94D2200C94A92020912B0189
:10421000222329F02091260327FD0C94E6200C94FC
:10422000C320FC01329680912B01882351F08091AC
:10423000260387FF06C08EE1DF011D928A95E9F70C
:10424000089586E0F9CF089508950C9424210E94E2
:10425000252180915A03843009F43CC010921F0339
:1042600088E190E020E40FB6F894A8958093600070
:104270000FBE2093600080E00E94D51080E00E9475
:1042800080040E949C0E8091200381110AC081E06D
:104290008093200380916B028170809321030E94A0
:1042A000B70D0E94252183B7817F846083BF83B7C8
:1042B000816083BF7894889583B78E7F83BF0FB664
:1042C000F894A895809160008861809360001092B6
:1042D00060000FBE08950895CF930E9423210E948D
:1042E000FA060E946B21C0E08C2F0E949B06892B4E
:1042F00031F4CF5FC530C1F780E0CF91089581E000
:10430000FCCF08950C9481210E9468180E94D40F5C
:104310000E9444130E948004109220038091210384
:1043200081110E94940E0E94C90D0C9482211F924B
:104330001FB61F9211248F939F93AF93BF938091C9
:104340001F03811113C08091220390912303A09138
:104350002403B09125034196A11DB11D8093220332
:1043600090932303A0932403B0932503BF91AF91AF
:104370009F918F911F901FBE1F90189582E084BD62
:1043800093E095BD9AEF97BD80936E0008952FB787
:10439000F8948091220390912303A0912403B0917B
:1043A00025032FBF08959C014FB7F89480912203F5
:1043B00090912303A0912403B09125034FBF821B4A
:1043C000930B089578941F921FB61F9211248F9318
:1043D0009F93AF93BF938091220390912303A09169
:1043E0002403B09125030196A11DB11D80932203E2
:1043F00090932303A0932403B0932503BF91AF911F
:104400009F918F911F901FBE1F90189581E0809300
:10441000E00080E28093D8001092C9008FE19EE412
:104420000197F1F700C0000087E090EBDC0180937A
:10443000640390936503A0936603B093670388E1D8
:104440009CE00FB6F894A895809360000FBE9093FF
:104450006000FFCFAF92BF92CF92DF92EF92FF92B8
:104460000F931F93CF93C0E0AA24A394B12CE82EFE
:10447000F12C8C2F0E949B066C0110E000E0C5011E
:10448000002E02C0880F991F0A94E2F78C219D210B
:10449000892B99F0602F7C2F80E00E948C04E81615
:1044A000F90659F481E0CF911F910F91FF90EF90A1
:1044B000DF90CF90BF90AF9008950F5F1F4F0F30E8
:1044C0001105E9F6CF5FC530A1F680E0ECCFCF93C0
:1044D000C82F8CE20E942A22882321F08C2FCF91B2
:1044E0000C942A2280E0CF910895CF93DF9300D0DF
:1044F00000D0CDB7DEB70E94A51F811102C00E9477
:104500005C2095E6998308C00E94FA068FE39CE937
:104510000197F1F700C00000A981A150A983A11162
:10452000F3CF89E20E94672281112EC18AE20E94A4
:10453000672281110E945C2085E00E946722811120
:104540000E9406220E94B01F80931E0387E00E94F3
:104550006722882371F08BE10E946722882309F487
:10456000EFC090911E03892F8D7F91FF8260809311
:104570001E0380911E030E94B41F0E94C21F9093CD
:1045800027038093260380EE0E946722882341F050
:1045900090912603892F8E7F90FF81608093260360
:1045A00089E30E946722882341F090912603892F96
:1045B0008D7F91FF82608093260382EE0E946722A6
:1045C000882341F090912603892F8B7F92FF84608E
:1045D0008093260386EE0E946722882341F0909103
:1045E0002603892F877F93FF88608093260383EEBD
:1045F0000E946722882341F090912603892F8F7EA5
:1046000094FF80618093260385E30E9467228823BC
:1046100041F090912603892F8F7D95FF80628093D2
:10462000260381E30E946722882341F090912603AC
:10463000892F8F7B96FF80648093260381E10E94FF
:104640006722882341F090912603892F97FB87F9F1
:1046500080588093260380912603909127030E941F
:10466000D01F87E20E94672289838EE10E94672221
:10467000882319F0B981B260B9838FE10E94672263
:10468000882319F029812460298380E20E9467220F
:10469000882319F039813860398381E20E946722CA
:1046A000882319F049814061498382E20E94672290
:1046B000882319F059815062598383E20E9467224E
:1046C000882319F089818064898384E20E946722AB
:1046D000882309F452C099819068998389810E9446
:1046E000BD1F3981232F30E050E040E0CA01B901FD
:1046F0000E94F21B8091F1029091F202A091F302CC
:10470000B091F40289839A83AB83BC83BC01CD0151
:104710000E946C1C8FE00E946722882319F081E0C0
:104720000E945E2085E10E946722882369F180E073
:104730000F900F900F900F90DF91CF910C945E200F
:104740008EE00E946722882339F090911E03892F02
:104750008B7F92FF84600BCF80E10E946722909153
:104760001E03882329F0892F877F93FF8860FFCE5F
:10477000892F8E7F90FF8160FACEA981A111AECFE3
:104780000E94B91F282FAFCF0F900F900F900F905E
:10479000DF91CF91089580912E0380FF12C0609128
:1047A0001E0185E0689FB001112475956795759588
:1047B000679560387105A8F561157105A1F1862F1F
:1047C000089581FF09C060911E0185E0689FB001D6
:1047D000112475956795EDCF60911E0182FD0AC089
:1047E00080912D038823D1F090911D0160911E01CD
:1047F000891728F085E0689FB0011124DACF869FE1
:10480000B001112485E0869F9001879F300D11240F
:10481000692F70E0C9010E94532DCBCF65E070E095
:10482000CECF8FE7089581E0089580912E0380FF19
:104830000CC060911A0170E0759567957595679544
:104840006115710549F1862F089581FF06C06091B9
:104850001A0170E075956795F3CF60911A0182FD9A
:104860000BC090912C039923A1F0609119018091C4
:104870001A01961738F0682F70E06038710500F360
:104880008FE70895899FC001112470E00E94532D85
:10489000F4CF61E070E0D7CF81E00895803F31F43C
:1048A0000E94CB238195809332030895813F19F4B0
:1048B0000E94CB23F8CF823F31F40E94CB23819515
:1048C000809331030895833F19F40E94CB23F8CFDE
:1048D000893F29F40E9415248093330308958A3F69
:1048E00021F40E9415248195F7CF8B3F31F40E946B
:1048F000152481958093340308958C3F19F40E9408
:104900001524F8CF843F31F4809130038160809387
:1049100030030895853F21F4809130038260F7CF02
:10492000863F21F4809130038460F1CF873F21F4EA
:10493000809130038860EBCF883F21F48091300371
:104940008061E5CF8D3F31F480912E0381608093AB
:104950002E0308958E3F21F480912E038260F7CFBD
:104960008F3FB9F780912E038460F1CF909131038E
:10497000803F59F48091320387FF0DC010923203BB
:1049800091110BC010922D0308C0813F81F48091DA
:10499000320318169CF3992381F080913303909190
:1049A0003403892B09F064C010922C030895823FD0
:1049B00049F497FFF0CF10923103809132038111B7
:1049C000ECCFE0CF833F19F41916ACF3E4CF20917C
:1049D0003303893F29F41216F4F610923303DBCF28
:1049E0008A3F19F427FFD7CFF8CF209134038B3FAC
:1049F00029F427FFD0CF10923403CDCF8C3F19F488
:104A00001216CCF3C8CF843F31F4809130038E7FEF
:104A100080933003C0CF853F21F4809130038D7F98
:104A2000F7CF863F21F4809130038B7FF1CF873F12
:104A300021F480913003877FEBCF883F21F4809170
:104A400030038F7EE5CF8D3F31F480912E038E7F32
:104A500080932E03A0CF8E3F21F480912E038D7F73
:104A6000F7CF8F3F09F097CF80912E038B7FF0CF48
:104A700008950E94C7212091310330913203232BE6
:104A800021F080932A0390932B03209133033091DC
:104A90003403232B21F080932803909329038FE282
:104AA00093E00C946B13CF92DF92EF92FF920F93EF
:104AB0001F93CF93DF9300D000D000D0CDB7DEB7E7
:104AC00026E0EFE2F3E0CE010196DC0101900D92C9
:104AD0002A95E1F7C0903103D0903203E090330380
:104AE000F09034031092310310923203109233038A
:104AF000109234032C2D2D298C0191F080912A03E2
:104B000090912B030E94D3219C0180912D03882337
:104B100009F440C090911F019217130608F448C091
:104B20008E2D8F2991F080912803909129030E9466
:104B3000D3219C0180912C03882309F478C09091A3
:104B40001B019217130608F480C0809131039091E5
:104B50003203892B90913303892B90913403892B55
:104B600011F00E94392586E0F801AFE2B3E0019030
:104B70000D928A95E1F726960FB6F894DEBF0FBE28
:104B8000CDBFDF91CF911F910F91FF90EF90DF90FC
:104B9000CF900895409120019AE0499FA0011124EF
:104BA0004217530708F0BCCF8F5F80932D0302C0DC
:104BB0008F3FD1F7CC2059F00E94CB239FEF1C14DC
:104BC0000CF491E0899F802D112480933103DD2026
:104BD00059F00E94CB239FEF1D140CF491E0899FA4
:104BE000802D11248093320330913103332309F453
:104BF00097CF20913203222309F492CF45EB34035F
:104C0000C0011124992359F09093310345EB2403FB
:104C100090011124332339F03093320381CF81E0A6
:104C200080933103F3CF81E08093320379CF4091B9
:104C30001C019AE0499FA00111244217530708F074
:104C400084CF8F5F80932C0302C08F3FD1F7EE207B
:104C500059F00E9415249FEF1E140CF491E0899FD7
:104C6000802D112480933303FF2059F00E941524D6
:104C70009FEF1F140CF491E0899F802D11248093E5
:104C8000340330913303332309F45FCF209134038D
:104C9000222309F45ACF45EB3403C0011124992390
:104CA00059F09093330345EB2403900111243323EF
:104CB00039F03093340349CF81E080933303F3CF4D
:104CC00081E08093340341CF86E0EFE2F3E0DF013F
:104CD0001D928A95E9F710922D0310922C031092E1
:104CE0002E030895809155030895CF93DF9300D04C
:104CF0000F92CDB7DEB790915A03943019F589839E
:104D00006A837B8382E08093E9008FEF9091E800D3
:104D1000815095FD06C095ED9A95F1F7000081113F
:104D2000F5CF8091E80085FF0DC050E040E063E0E2
:104D300070E0CE0101960E949C288091E8008E7759
:104D40008093E8000F900F900F90DF91CF9108951E
:104D5000BC0184E00C947526BC0183E00C9475269C
:104D600022E02093E9002FEF3091E800215035FD3B
:104D700006C035ED3A95F1F700002111F5CF2091ED
:104D8000E80025FF0BC050E040E066E070E00E94C4
:104D90009C288091E8008E778093E8000895CF9357
:104DA000DF93D82FC92F80912B018823C1F18091E7
:104DB000260387FF34C060E282E08093E9008FEF32
:104DC0009091E800815095FD06C095ED9A95F1F718
:104DD00000008111F5CF8091E80085FF1DC0809112
:104DE0002B0170E050E040E0811104C050E040E051
:104DF00068E070E08D2F9C2F0E949C288091E80035
:104E00008E778093E80080E2ED2FFC2FA5E3B3E0DE
:104E100001900D928A95E1F7DF91CF91089568E0B6
:104E200081E0CBCF80916303811109C00E94242AC5
:104E30000E94812A8091E20084608093E2000895BC
:104E4000109263030895089508950C94842142E01C
:104E500061EC81E00E94A02942E261EC82E00C94C6
:104E6000A02980915C03893089F148F4823009F4EB
:104E70009DC0833009F458C0813041F008958A30D4
:104E800009F484C08B3009F46AC0089580915B03F3
:104E9000813A09F048C08091E800877F8093E8005C
:104EA00080915F0390916003892B61F460E285E358
:104EB00093E070E00E94EB288091E8008B7780936C
:104EC000E800089560E090E080E0F3CF80915B031C
:104ED000813249F580915F0390916003029718F544
:104EE0008091E800877F8093E8008091E80082FF4E
:104EF00016C09091F3008091F200029729F48091FE
:104F0000F1008B7F813021F48091F1008093550373
:104F10008091E8008B778093E8000C94D4298091ED
:104F20005A038111E2CF089580915B03813AD9F74A
:104F300080915F0390916003892BA9F78091E8002D
:104F4000877F8093E8008091E80080FFFCCF80910C
:104F50002B018093F1008091E8008E77DCCF809167
:104F60005B03813201F780915F0390916003892B8D
:104F7000D1F68091E800877F8093E8000E94D429D1
:104F800080915D0380932B010C94681880915B03E2
:104F9000813249F68091E800877F8093E8000E9483
:104FA000D42980915E0380935603089580915B031A
:104FB000813A09F0B8CF8091E800877F8093E800BC
:104FC0008091E80080FFFCCF80915603C2CF84B768
:104FD000877F84BF0FB6F894A895809160008861A0
:104FE00080936000109260000FBE80E890E00FB6E2
:104FF000F89480936100909361000FBE0E94B413F7
:105000000E94242A0E94812A8091E2008460809379
:10501000E20078940E94082D0E94C01381E291E082
:105020000E943F1380915A03853039F00E94CC13BF
:105030000E94BE130E94BF13F5CF0E9427218091CA
:105040005703882379F30E946C21882359F30E9427
:105050008628E8CF0C942C28FC01CB01DA012F2FF5
:10506000332723303105D1F070F42130310509F4B4
:105070003EC02230310569F48BE390E020E435E056
:105080002D933C93089521323105E9F02232310508
:1050900021F190E080E030E020E0F2CFCF019927CD
:1050A000E13059F08230910559F0ECE3F5E0892BBD
:1050B00081F7849190E09F01E3CFEAE2F5E0F9CF38
:1050C000EEE1F5E0F6CF892BB9F06130710509F713
:1050D00089E090E02BE635E0D3CF892B91F0613069
:1050E0007105B9F68CEB90E02DE835E0C9CF82E18F
:1050F00090E02BE735E0C4CF89E090E022E535E091
:10510000BFCF80E490E029E436E0BACF80E189BDEA
:1051100082E189BD09B400FEFDCF8091D8008F7D6A
:105120008093D8008091E00082608093E0008091BD
:10513000E00081FDFCCF0895AF92BF92CF92DF9245
:10514000FF920F931F93CF93DF936C01EB018A01C2
:105150000E94F329F82E811123C00115110539F0A1
:10516000F80180819181C81BD90BC80ED91EB12CC2
:10517000A12C2097A9F08091E80085FD22C08091A4
:10518000E8008E778093E80001151105A1F0F80181
:1051900080819181A80EB91EB182A08285E0F82E8F
:1051A0008F2DDF91CF911F910F91FF90DF90CF90C6
:1051B000BF90AF9008950E94F3298823D1F2F82E72
:1051C000EFCFF60181916F018093F1002197FFEFFE
:1051D000AF1ABF0ACECFFC01CB0120916103309101
:1051E00062032617370790F0009729F42091E80012
:1051F0002E772093E80040E0009751F4411108C059
:105200008091E80082FF31C080E00895C901F3CFAA
:1052100020915A032223A9F12530A9F12091E80019
:1052200023FD2DC02091E80022FDEACF2091E80067
:1052300020FFE2CF3091F3002091F200009719F0A7
:105240002830310558F041E02830310509F040E0C0
:105250002091E8002E772093E800CECF4191409333
:10526000F10001972F5F3F4FE9CF80915A038823C8
:1052700041F0853041F08091E80083FFC1CF81E0AB
:10528000089582E0089583E00895FC01CB01209108
:105290006103309162032617370790F0009729F4D5
:1052A0002091E8002E772093E80040E0009751F429
:1052B000411108C08091E80082FF32C080E008956B
:1052C000C901F3CF20915A032223B1F12530B1F166
:1052D0002091E80023FD2EC02091E80022FDEACFB6
:1052E0002091E80020FFE2CF3091F3002091F200FE
:1052F000009719F02830310558F041E02830310589
:1053000009F040E02091E8002E772093E800CECF0E
:1053100044914093F100319601972F5F3F4FE8CFC2
:1053200080915A03882341F0853041F08091E80054
:1053300083FFC0CF81E0089582E0089583E008955F
:10534000982F973028F08F708093E90081E00895BE
:105350009093E900242F762F50E0981731F0709148
:10536000EC002091ED005091F00021FD02C09F5F04
:10537000E8CF3091EB003E7F3093EB003091ED00B1
:105380003D7F3093ED003091EB0031603093EB00C6
:105390007093EC002093ED005093F0002091EE000C
:1053A00027FDE5CF80E0089580915B0387FF13C060
:1053B0008091E80082FF06C08091E8008B7780939F
:1053C000E80004C080915A038111F2CF08958091C2
:1053D0005A038823D9F38091E80080FFF8CF8091A9
:1053E000E8008E77ECCF2091E4003091E50095E65F
:1053F000A9012091EC00822F817020FF06C08091CE
:10540000E80080FF06C080E008952091E80022FDBA
:105410001AC080915A03882389F0853089F08091E1
:10542000EB0085FD0FC02091E4003091E5004217AC
:105430005307F9F29150E1F684E0089582E008956F
:1054400083E0089581E008950E94922A0E949A2A9A
:10545000E0EEF0E0808181608083E8EDF0E0808123
:105460008F77808319BCA7EDB0E08C918E7F8C93F1
:1054700080818F7E80831092630308950F931F9322
:10548000CF93DF930E94922A0E949A2AC8EDD0E01F
:1054900088818F77888388818068888388818F7DE1
:1054A000888319BC10925A03109259031092570323
:1054B0001092580300EE10E0F80180818B7F80830A
:1054C00088818160888342E060E080E00E94A029BA
:1054D000E1EEF0E080818E7F8083E2EEF0E080817B
:1054E00081608083808188608083F80180818E7FE5
:1054F0008083888180618883DF91CF911F910F9194
:105500000895E8EDF0E080818F7E8083E7EDF0E0A4
:1055100080818160808384E082BF81E08093630327
:105520000C943E2AE8EDF0E080818E7F808310921B
:10553000E20008951092DA001092E10008951F929F
:105540000F920FB60F9211242F933F934F935F93B7
:105550006F937F938F939F93AF93BF93EF93FF933B
:105560008091E10082FF0BC08091E20082FF07C0C2
:105570008091E1008B7F8093E1000E94072D809154
:10558000DA0080FF19C08091D80080FF15C080919B
:10559000DA008E7F8093DA008091D90080FF94C07A
:1055A00080E189BD82E189BD09B400FEFDCF81E0C3
:1055B00080935A030E9412278091E10080FF19C056
:1055C0008091E20080FF15C08091E2008E7F809381
:1055D000E2008091E20080618093E2008091D80037
:1055E00080628093D80019BC85E080935A030E94A2
:1055F00024278091E10084FF29C08091E20084FF8C
:1056000025C080E189BD82E189BD09B400FEFDCFDE
:105610008091D8008F7D8093D8008091E1008F7EAB
:105620008093E1008091E2008F7E8093E200809180
:10563000E20081608093E20080915903882309F49D
:1056400049C084E080935A030E9425278091E1009D
:1056500083FF29C08091E20083FF25C08091E10093
:10566000877F8093E10082E080935A031092590370
:105670008091E1008E7F8093E1008091E2008E7F37
:105680008093E2008091E20080618093E20042E03A
:1056900060E080E00E94A0298091F0008860809303
:1056A000F0000E942327FF91EF91BF91AF919F914E
:1056B0008F917F916F915F914F913F912F910F90BB
:1056C0000FBE0F901F90189519BC10925A030E949C
:1056D000202772CF8091E30087FD02C081E0B2CF26
:1056E00083E0B0CF1F920F920FB60F9211242F9329
:1056F0003F934F935F936F937F938F939F93AF935A
:10570000BF93CF93DF93EF93FF93D091E900DF70C6
:105710008091EC00C82FC17080FDC0E81092E900B4
:105720008091F000877F8093F00078940E94B62BE0
:105730001092E9008091F00088608093F000CD2BFA
:10574000CF70C093E900FF91EF91DF91CF91BF91AE
:10575000AF919F918F917F916F915F914F913F9109
:105760002F910F900FBE0F901F9018951F93CF93FE
:10577000DF93CDB7DEB7AA970FB6F894DEBF0FBEA2
:10578000CDBF8BE593E0FC0101962091F1002083D1
:1057900023E083369207B9F70E9431278091E80011
:1057A00083FF1DC180915B0390915C039A3008F0E8
:1057B00016C1E92FF0E0E251F14D0C94892D8038AB
:1057C00099F0823809F00BC180915F038F708730A8
:1057D00008F005C18093E9008091EB0085FB8827E4
:1057E00080F91092E90006C0809158039091570308
:1057F000911182609091E800977F9093E8008093E8
:10580000F1001092F1008091E8008E77E4C08823C7
:1058100009F4D2C0823009F0E2C080915D038111A9
:10582000D5C080915F038F702FEF280F263008F0CE
:10583000D6C08093E9002091EB0020FFC7C09330D1
:1058400031F48091EB0080628093EB00BFC09091B7
:10585000EB0090619093EB0021E030E001C0220F5B
:105860008A95EAF72093EA001092EA008091EB0013
:105870008860EACF8111B3C010915D031F778091DA
:10588000E3008078812B8093E3008091E800877F9C
:105890008093E8000E94D4298091E80080FFFCCF2B
:1058A0008091E30080688093E30082E0111183E03F
:1058B00080935A0394C08058823008F090C0809141
:1058C0005D0390915E038C3D23E0920799F583E0A0
:1058D0008A838AE289834FB7F894DE01139620E029
:1058E0003EE051E2E32FF0E050935700849120FF17
:1058F00003C082958F703F5F8F708A30C8F0895CDB
:1059000090E08D939D932F5F243161F74FBF80917D
:10591000E800877F8093E8006AE270E0CE0101969C
:105920000E94EB288091E8008B778093E80057C0B5
:10593000805DE6CF60915F0370916003AE014F5FC1
:105940005F4F0E942A28BC01892B09F448C080912E
:10595000E800877F8093E80089819A810E94452929
:10596000E1CF8038E1F58091E800877F8093E800FF
:10597000809159038093F10046CF811130C09091FE
:105980005D03923060F58091E800877F8093E800A6
:10599000909359030E94D42980915903882311F0D0
:1059A00084E005C08091E30087FDFACF81E0809319
:1059B0005A030E94272713C080915D03813079F438
:1059C00081E0933009F080E0809357031092E90062
:1059D0008091E800877F8093E8000E94D42980911D
:1059E000E80083FF0AC08091E800877F8093E80089
:1059F0008091EB0080628093EB00AA960FB6F8943A
:105A0000DEBF0FBECDBFDF91CF911F9108950895E6
:105A1000CF9380915A038823A1F0C091E900CF7001
:105A20009091EC00892F817090FD80E8C82B109236
:105A3000E9008091E80083FD0E94B62BCF70C093EF
:105A4000E900CF910895DB018F939F930E94AD2DC4
:105A5000BF91AF91A29F800D911DA39F900DB29F0A
:105A6000900D11240895991B79E004C0991F961791
:105A700008F0961B881F7A95C9F780950895AA1B90
:105A8000BB1B51E107C0AA1FBB1FA617B70710F029
:105A9000A61BB70B881F991F5A95A9F7809590955B
:105AA000BC01CD01089597FB072E16F4009407D092
:105AB00077FD09D00E943F2D07FC05D03EF490955C
:105AC00081959F4F0895709561957F4F0895A1E24C
:105AD0001A2EAA1BBB1BFD010DC0AA1FBB1FEE1F68
